{
  "abi": [
    {
      "inputs": [
        {
          "internalType": "contract IERC20",
          "name": "_sushi",
          "type": "address"
        }
      ],
      "stateMutability": "nonpayable",
      "type": "constructor"
    },
    {
      "anonymous": false,
      "inputs": [
        {
          "indexed": true,
          "internalType": "address",
          "name": "user",
          "type": "address"
        },
        {
          "indexed": true,
          "internalType": "uint256",
          "name": "pid",
          "type": "uint256"
        },
        {
          "indexed": false,
          "internalType": "uint256",
          "name": "amount",
          "type": "uint256"
        },
        {
          "indexed": true,
          "internalType": "address",
          "name": "to",
          "type": "address"
        }
      ],
      "name": "Deposit",
      "type": "event"
    },
    {
      "anonymous": false,
      "inputs": [
        {
          "indexed": true,
          "internalType": "address",
          "name": "user",
          "type": "address"
        },
        {
          "indexed": true,
          "internalType": "uint256",
          "name": "pid",
          "type": "uint256"
        },
        {
          "indexed": false,
          "internalType": "uint256",
          "name": "amount",
          "type": "uint256"
        },
        {
          "indexed": true,
          "internalType": "address",
          "name": "to",
          "type": "address"
        }
      ],
      "name": "EmergencyWithdraw",
      "type": "event"
    },
    {
      "anonymous": false,
      "inputs": [
        {
          "indexed": true,
          "internalType": "address",
          "name": "user",
          "type": "address"
        },
        {
          "indexed": true,
          "internalType": "uint256",
          "name": "pid",
          "type": "uint256"
        },
        {
          "indexed": false,
          "internalType": "uint256",
          "name": "amount",
          "type": "uint256"
        }
      ],
      "name": "Harvest",
      "type": "event"
    },
    {
      "anonymous": false,
      "inputs": [
        {
          "indexed": true,
          "internalType": "uint256",
          "name": "pid",
          "type": "uint256"
        },
        {
          "indexed": false,
          "internalType": "uint256",
          "name": "allocPoint",
          "type": "uint256"
        },
        {
          "indexed": true,
          "internalType": "contract IERC20",
          "name": "lpToken",
          "type": "address"
        },
        {
          "indexed": true,
          "internalType": "contract IRewarder",
          "name": "rewarder",
          "type": "address"
        }
      ],
      "name": "LogPoolAddition",
      "type": "event"
    },
    {
      "anonymous": false,
      "inputs": [
        {
          "indexed": true,
          "internalType": "uint256",
          "name": "pid",
          "type": "uint256"
        },
        {
          "indexed": false,
          "internalType": "uint256",
          "name": "allocPoint",
          "type": "uint256"
        },
        {
          "indexed": true,
          "internalType": "contract IRewarder",
          "name": "rewarder",
          "type": "address"
        },
        {
          "indexed": false,
          "internalType": "bool",
          "name": "overwrite",
          "type": "bool"
        }
      ],
      "name": "LogSetPool",
      "type": "event"
    },
    {
      "anonymous": false,
      "inputs": [
        {
          "indexed": false,
          "internalType": "uint256",
          "name": "sushiPerSecond",
          "type": "uint256"
        }
      ],
      "name": "LogSushiPerSecond",
      "type": "event"
    },
    {
      "anonymous": false,
      "inputs": [
        {
          "indexed": true,
          "internalType": "uint256",
          "name": "pid",
          "type": "uint256"
        },
        {
          "indexed": false,
          "internalType": "uint64",
          "name": "lastRewardTime",
          "type": "uint64"
        },
        {
          "indexed": false,
          "internalType": "uint256",
          "name": "lpSupply",
          "type": "uint256"
        },
        {
          "indexed": false,
          "internalType": "uint256",
          "name": "accSushiPerShare",
          "type": "uint256"
        }
      ],
      "name": "LogUpdatePool",
      "type": "event"
    },
    {
      "anonymous": false,
      "inputs": [
        {
          "indexed": true,
          "internalType": "address",
          "name": "previousOwner",
          "type": "address"
        },
        {
          "indexed": true,
          "internalType": "address",
          "name": "newOwner",
          "type": "address"
        }
      ],
      "name": "OwnershipTransferred",
      "type": "event"
    },
    {
      "anonymous": false,
      "inputs": [
        {
          "indexed": true,
          "internalType": "address",
          "name": "user",
          "type": "address"
        },
        {
          "indexed": true,
          "internalType": "uint256",
          "name": "pid",
          "type": "uint256"
        },
        {
          "indexed": false,
          "internalType": "uint256",
          "name": "amount",
          "type": "uint256"
        },
        {
          "indexed": true,
          "internalType": "address",
          "name": "to",
          "type": "address"
        }
      ],
      "name": "Withdraw",
      "type": "event"
    },
    {
      "inputs": [],
      "name": "SUSHI",
      "outputs": [
        {
          "internalType": "contract IERC20",
          "name": "",
          "type": "address"
        }
      ],
      "stateMutability": "view",
      "type": "function"
    },
    {
      "inputs": [
        {
          "internalType": "uint256",
          "name": "allocPoint",
          "type": "uint256"
        },
        {
          "internalType": "contract IERC20",
          "name": "_lpToken",
          "type": "address"
        },
        {
          "internalType": "contract IRewarder",
          "name": "_rewarder",
          "type": "address"
        }
      ],
      "name": "add",
      "outputs": [],
      "stateMutability": "nonpayable",
      "type": "function"
    },
    {
      "inputs": [
        {
          "internalType": "bytes[]",
          "name": "calls",
          "type": "bytes[]"
        },
        {
          "internalType": "bool",
          "name": "revertOnFail",
          "type": "bool"
        }
      ],
      "name": "batch",
      "outputs": [
        {
          "internalType": "bool[]",
          "name": "successes",
          "type": "bool[]"
        },
        {
          "internalType": "bytes[]",
          "name": "results",
          "type": "bytes[]"
        }
      ],
      "stateMutability": "payable",
      "type": "function"
    },
    {
      "inputs": [],
      "name": "claimOwnership",
      "outputs": [],
      "stateMutability": "nonpayable",
      "type": "function"
    },
    {
      "inputs": [
        {
          "internalType": "uint256",
          "name": "pid",
          "type": "uint256"
        },
        {
          "internalType": "uint256",
          "name": "amount",
          "type": "uint256"
        },
        {
          "internalType": "address",
          "name": "to",
          "type": "address"
        }
      ],
      "name": "deposit",
      "outputs": [],
      "stateMutability": "nonpayable",
      "type": "function"
    },
    {
      "inputs": [
        {
          "internalType": "uint256",
          "name": "pid",
          "type": "uint256"
        },
        {
          "internalType": "address",
          "name": "to",
          "type": "address"
        }
      ],
      "name": "emergencyWithdraw",
      "outputs": [],
      "stateMutability": "nonpayable",
      "type": "function"
    },
    {
      "inputs": [
        {
          "internalType": "uint256",
          "name": "pid",
          "type": "uint256"
        },
        {
          "internalType": "address",
          "name": "to",
          "type": "address"
        }
      ],
      "name": "harvest",
      "outputs": [],
      "stateMutability": "nonpayable",
      "type": "function"
    },
    {
      "inputs": [
        {
          "internalType": "uint256",
          "name": "",
          "type": "uint256"
        }
      ],
      "name": "lpToken",
      "outputs": [
        {
          "internalType": "contract IERC20",
          "name": "",
          "type": "address"
        }
      ],
      "stateMutability": "view",
      "type": "function"
    },
    {
      "inputs": [
        {
          "internalType": "uint256[]",
          "name": "pids",
          "type": "uint256[]"
        }
      ],
      "name": "massUpdatePools",
      "outputs": [],
      "stateMutability": "nonpayable",
      "type": "function"
    },
    {
      "inputs": [
        {
          "internalType": "uint256",
          "name": "_pid",
          "type": "uint256"
        }
      ],
      "name": "migrate",
      "outputs": [],
      "stateMutability": "nonpayable",
      "type": "function"
    },
    {
      "inputs": [],
      "name": "migrator",
      "outputs": [
        {
          "internalType": "contract IMigratorChef",
          "name": "",
          "type": "address"
        }
      ],
      "stateMutability": "view",
      "type": "function"
    },
    {
      "inputs": [],
      "name": "owner",
      "outputs": [
        {
          "internalType": "address",
          "name": "",
          "type": "address"
        }
      ],
      "stateMutability": "view",
      "type": "function"
    },
    {
      "inputs": [],
      "name": "pendingOwner",
      "outputs": [
        {
          "internalType": "address",
          "name": "",
          "type": "address"
        }
      ],
      "stateMutability": "view",
      "type": "function"
    },
    {
      "inputs": [
        {
          "internalType": "uint256",
          "name": "_pid",
          "type": "uint256"
        },
        {
          "internalType": "address",
          "name": "_user",
          "type": "address"
        }
      ],
      "name": "pendingSushi",
      "outputs": [
        {
          "internalType": "uint256",
          "name": "pending",
          "type": "uint256"
        }
      ],
      "stateMutability": "view",
      "type": "function"
    },
    {
      "inputs": [
        {
          "internalType": "contract IERC20",
          "name": "token",
          "type": "address"
        },
        {
          "internalType": "address",
          "name": "from",
          "type": "address"
        },
        {
          "internalType": "address",
          "name": "to",
          "type": "address"
        },
        {
          "internalType": "uint256",
          "name": "amount",
          "type": "uint256"
        },
        {
          "internalType": "uint256",
          "name": "deadline",
          "type": "uint256"
        },
        {
          "internalType": "uint8",
          "name": "v",
          "type": "uint8"
        },
        {
          "internalType": "bytes32",
          "name": "r",
          "type": "bytes32"
        },
        {
          "internalType": "bytes32",
          "name": "s",
          "type": "bytes32"
        }
      ],
      "name": "permitToken",
      "outputs": [],
      "stateMutability": "nonpayable",
      "type": "function"
    },
    {
      "inputs": [
        {
          "internalType": "uint256",
          "name": "",
          "type": "uint256"
        }
      ],
      "name": "poolInfo",
      "outputs": [
        {
          "internalType": "uint128",
          "name": "accSushiPerShare",
          "type": "uint128"
        },
        {
          "internalType": "uint64",
          "name": "lastRewardTime",
          "type": "uint64"
        },
        {
          "internalType": "uint64",
          "name": "allocPoint",
          "type": "uint64"
        }
      ],
      "stateMutability": "view",
      "type": "function"
    },
    {
      "inputs": [],
      "name": "poolLength",
      "outputs": [
        {
          "internalType": "uint256",
          "name": "pools",
          "type": "uint256"
        }
      ],
      "stateMutability": "view",
      "type": "function"
    },
    {
      "inputs": [
        {
          "internalType": "uint256",
          "name": "",
          "type": "uint256"
        }
      ],
      "name": "rewarder",
      "outputs": [
        {
          "internalType": "contract IRewarder",
          "name": "",
          "type": "address"
        }
      ],
      "stateMutability": "view",
      "type": "function"
    },
    {
      "inputs": [
        {
          "internalType": "uint256",
          "name": "_pid",
          "type": "uint256"
        },
        {
          "internalType": "uint256",
          "name": "_allocPoint",
          "type": "uint256"
        },
        {
          "internalType": "contract IRewarder",
          "name": "_rewarder",
          "type": "address"
        },
        {
          "internalType": "bool",
          "name": "overwrite",
          "type": "bool"
        }
      ],
      "name": "set",
      "outputs": [],
      "stateMutability": "nonpayable",
      "type": "function"
    },
    {
      "inputs": [
        {
          "internalType": "contract IMigratorChef",
          "name": "_migrator",
          "type": "address"
        }
      ],
      "name": "setMigrator",
      "outputs": [],
      "stateMutability": "nonpayable",
      "type": "function"
    },
    {
      "inputs": [
        {
          "internalType": "uint256",
          "name": "_sushiPerSecond",
          "type": "uint256"
        }
      ],
      "name": "setSushiPerSecond",
      "outputs": [],
      "stateMutability": "nonpayable",
      "type": "function"
    },
    {
      "inputs": [],
      "name": "sushiPerSecond",
      "outputs": [
        {
          "internalType": "uint256",
          "name": "",
          "type": "uint256"
        }
      ],
      "stateMutability": "view",
      "type": "function"
    },
    {
      "inputs": [],
      "name": "totalAllocPoint",
      "outputs": [
        {
          "internalType": "uint256",
          "name": "",
          "type": "uint256"
        }
      ],
      "stateMutability": "view",
      "type": "function"
    },
    {
      "inputs": [
        {
          "internalType": "address",
          "name": "newOwner",
          "type": "address"
        },
        {
          "internalType": "bool",
          "name": "direct",
          "type": "bool"
        },
        {
          "internalType": "bool",
          "name": "renounce",
          "type": "bool"
        }
      ],
      "name": "transferOwnership",
      "outputs": [],
      "stateMutability": "nonpayable",
      "type": "function"
    },
    {
      "inputs": [
        {
          "internalType": "uint256",
          "name": "pid",
          "type": "uint256"
        }
      ],
      "name": "updatePool",
      "outputs": [
        {
          "components": [
            {
              "internalType": "uint128",
              "name": "accSushiPerShare",
              "type": "uint128"
            },
            {
              "internalType": "uint64",
              "name": "lastRewardTime",
              "type": "uint64"
            },
            {
              "internalType": "uint64",
              "name": "allocPoint",
              "type": "uint64"
            }
          ],
          "internalType": "struct MiniChefV2.PoolInfo",
          "name": "pool",
          "type": "tuple"
        }
      ],
      "stateMutability": "nonpayable",
      "type": "function"
    },
    {
      "inputs": [
        {
          "internalType": "uint256",
          "name": "",
          "type": "uint256"
        },
        {
          "internalType": "address",
          "name": "",
          "type": "address"
        }
      ],
      "name": "userInfo",
      "outputs": [
        {
          "internalType": "uint256",
          "name": "amount",
          "type": "uint256"
        },
        {
          "internalType": "int256",
          "name": "rewardDebt",
          "type": "int256"
        }
      ],
      "stateMutability": "view",
      "type": "function"
    },
    {
      "inputs": [
        {
          "internalType": "uint256",
          "name": "pid",
          "type": "uint256"
        },
        {
          "internalType": "uint256",
          "name": "amount",
          "type": "uint256"
        },
        {
          "internalType": "address",
          "name": "to",
          "type": "address"
        }
      ],
      "name": "withdraw",
      "outputs": [],
      "stateMutability": "nonpayable",
      "type": "function"
    },
    {
      "inputs": [
        {
          "internalType": "uint256",
          "name": "pid",
          "type": "uint256"
        },
        {
          "internalType": "uint256",
          "name": "amount",
          "type": "uint256"
        },
        {
          "internalType": "address",
          "name": "to",
          "type": "address"
        }
      ],
      "name": "withdrawAndHarvest",
      "outputs": [],
      "stateMutability": "nonpayable",
      "type": "function"
    }
  ],
  "bytecode": {
    "object": "0x60a06040523480156200001157600080fd5b506040516200360f3803806200360f833981016040819052620000349162000089565b600080546001600160a01b0319163390811782556040519091907f8be0079c531659141344cd1fd0a4f28419497f9722a3daafe3b4186f6b6457e0908290a360601b6001600160601b031916608052620000b9565b6000602082840312156200009b578081fd5b81516001600160a01b0381168114620000b2578182fd5b9392505050565b60805160601c61352e620000e1600039806109df5280611d3a52806120ef525061352e6000f3fe6080604052600436106101b75760003560e01c80637c516e94116100ec578063a06e408b1161008a578063c346253d11610064578063c346253d146104be578063d1abb907146104de578063d2423b51146104fe578063e30c39781461051f576101b7565b8063a06e408b14610474578063ab560e1014610489578063ab7de0981461049e576101b7565b80638da5cb5b116100c65780638da5cb5b146103f15780638dbdbe6d1461040657806393f1a40b146104265780639baf58c314610454576101b7565b80637c516e941461039c5780637cd07e47146103bc57806388bba42f146103d1576101b7565b806323cf3118116101595780634e71e0c8116101335780634e71e0c81461030d57806351eb05a61461032257806357a5b58c1461034f57806378ed5d1f1461036f576101b7565b806323cf3118146102ad5780632f940c70146102cd578063454b0608146102ed576101b7565b80631526fe27116101955780631526fe271461022957806317caf6f11461025857806318fccc761461026d578063195426ec1461028d576101b7565b8063078dfbe7146101bc578063081e3eda146101de5780630ad58d2f14610209575b600080fd5b3480156101c857600080fd5b506101dc6101d7366004612a50565b610534565b005b3480156101ea57600080fd5b506101f36106c8565b60405161020091906133c8565b60405180910390f35b34801561021557600080fd5b506101dc610224366004612d4d565b6106ce565b34801561023557600080fd5b50610249610244366004612cb8565b6108c1565b60405161020093929190613394565b34801561026457600080fd5b506101f361092f565b34801561027957600080fd5b506101dc610288366004612ce8565b610935565b34801561029957600080fd5b506101f36102a8366004612ce8565b610b25565b3480156102b957600080fd5b506101dc6102c8366004612be3565b610d87565b3480156102d957600080fd5b506101dc6102e8366004612ce8565b610e1f565b3480156102f957600080fd5b506101dc610308366004612cb8565b610f8d565b34801561031957600080fd5b506101dc61132c565b34801561032e57600080fd5b5061034261033d366004612cb8565b611412565b6040516102009190613351565b34801561035b57600080fd5b506101dc61036a366004612ae4565b611766565b34801561037b57600080fd5b5061038f61038a366004612cb8565b61179c565b6040516102009190612e39565b3480156103a857600080fd5b506101dc6103b7366004612b5c565b6117d0565b3480156103c857600080fd5b5061038f61186a565b3480156103dd57600080fd5b506101dc6103ec366004612d7a565b611886565b3480156103fd57600080fd5b5061038f611a66565b34801561041257600080fd5b506101dc610421366004612d4d565b611a82565b34801561043257600080fd5b50610446610441366004612ce8565b611c7d565b60405161020092919061341d565b34801561046057600080fd5b506101dc61046f366004612cb8565b611ca1565b34801561048057600080fd5b506101f3611d32565b34801561049557600080fd5b5061038f611d38565b3480156104aa57600080fd5b506101dc6104b9366004612d17565b611d5c565b3480156104ca57600080fd5b5061038f6104d9366004612cb8565b611ff5565b3480156104ea57600080fd5b506101dc6104f9366004612d4d565b612002565b61051161050c366004612a9a565b6122ae565b604051610200929190612eff565b34801561052b57600080fd5b5061038f61245a565b60005473ffffffffffffffffffffffffffffffffffffffff16331461058e576040517f08c379a0000000000000000000000000000000000000000000000000000000008152600401610585906131b0565b60405180910390fd5b81156106825773ffffffffffffffffffffffffffffffffffffffff83161515806105b55750805b6105eb576040517f08c379a0000000000000000000000000000000000000000000000000000000008152600401610585906130ae565b6000805460405173ffffffffffffffffffffffffffffffffffffffff808716939216917f8be0079c531659141344cd1fd0a4f28419497f9722a3daafe3b4186f6b6457e091a36000805473ffffffffffffffffffffffffffffffffffffffff85167fffffffffffffffffffffffff0000000000000000000000000000000000000000918216179091556001805490911690556106c3565b600180547fffffffffffffffffffffffff00000000000000000000000000000000000000001673ffffffffffffffffffffffffffffffffffffffff85161790555b505050565b60035490565b6106d66129e7565b6106df84611412565b6000858152600660209081526040808320338452909152902081519192509061073a9064e8d4a51000906107269087906fffffffffffffffffffffffffffffffff16612476565b8161072d57fe5b60018401549190046124cd565b6001820155805461074b9085612534565b815560058054600091908790811061075f57fe5b60009182526020909120015473ffffffffffffffffffffffffffffffffffffffff16905080156108185781546040517f8bf6374200000000000000000000000000000000000000000000000000000000815273ffffffffffffffffffffffffffffffffffffffff831691638bf63742916107e5918a9133918a91600091906004016133d1565b600060405180830381600087803b1580156107ff57600080fd5b505af1158015610813573d6000803e3d6000fd5b505050505b61085384866004898154811061082a57fe5b60009182526020909120015473ffffffffffffffffffffffffffffffffffffffff169190612571565b8373ffffffffffffffffffffffffffffffffffffffff16863373ffffffffffffffffffffffffffffffffffffffff167f8166bf25f8a2b7ed3c85049207da4358d16edbed977d23fa2ee6f0dde3ec2132886040516108b191906133c8565b60405180910390a4505050505050565b600381815481106108ce57fe5b6000918252602090912001546fffffffffffffffffffffffffffffffff8116915067ffffffffffffffff7001000000000000000000000000000000008204811691780100000000000000000000000000000000000000000000000090041683565b60075481565b61093d6129e7565b61094683611412565b6000848152600660209081526040808320338452909152812082518154939450909264e8d4a510009161098b91906fffffffffffffffffffffffffffffffff16612476565b8161099257fe5b04905060006109b66109b18460010154846124cd90919063ffffffff16565b61269b565b6001840183905590508015610a0657610a0673ffffffffffffffffffffffffffffffffffffffff7f0000000000000000000000000000000000000000000000000000000000000000168683612571565b600060058781548110610a1557fe5b60009182526020909120015473ffffffffffffffffffffffffffffffffffffffff1690508015610acd5783546040517f8bf6374200000000000000000000000000000000000000000000000000000000815273ffffffffffffffffffffffffffffffffffffffff831691638bf6374291610a9a918b9133918c918991906004016133d1565b600060405180830381600087803b158015610ab457600080fd5b505af1158015610ac8573d6000803e3d6000fd5b505050505b863373ffffffffffffffffffffffffffffffffffffffff167f71bab65ced2e5750775a0613be067df48ef06cf92a496ebf7663ae066092495484604051610b1491906133c8565b60405180910390a350505050505050565b6000610b2f6129e7565b60038481548110610b3c57fe5b600091825260208083206040805160608101825291909301546fffffffffffffffffffffffffffffffff808216835267ffffffffffffffff70010000000000000000000000000000000083048116848601527801000000000000000000000000000000000000000000000000909204909116828501528885526006835283852073ffffffffffffffffffffffffffffffffffffffff89168652909252918320825160048054949650919492169288908110610bf357fe5b6000918252602090912001546040517f70a0823100000000000000000000000000000000000000000000000000000000815273ffffffffffffffffffffffffffffffffffffffff909116906370a0823190610c52903090600401612e39565b60206040518083038186803b158015610c6a57600080fd5b505afa158015610c7e573d6000803e3d6000fd5b505050506040513d601f19601f82011682018060405250810190610ca29190612cd0565b9050836020015167ffffffffffffffff1642118015610cc057508015155b15610d4e576000610ce8856020015167ffffffffffffffff164261253490919063ffffffff16565b90506000600754610d1c876040015167ffffffffffffffff16610d166008548661247690919063ffffffff16565b90612476565b81610d2357fe5b049050610d4983610d398364e8d4a51000612476565b81610d4057fe5b869190046126db565b935050505b60018301548354610d7c916109b19164e8d4a5100090610d6e9087612476565b81610d7557fe5b04906124cd565b979650505050505050565b60005473ffffffffffffffffffffffffffffffffffffffff163314610dd8576040517f08c379a0000000000000000000000000000000000000000000000000000000008152600401610585906131b0565b600280547fffffffffffffffffffffffff00000000000000000000000000000000000000001673ffffffffffffffffffffffffffffffffffffffff92909216919091179055565b60008281526006602090815260408083203384529091528120805482825560018201839055600580549293919286908110610e5657fe5b60009182526020909120015473ffffffffffffffffffffffffffffffffffffffff1690508015610f0e576040517f8bf6374200000000000000000000000000000000000000000000000000000000815273ffffffffffffffffffffffffffffffffffffffff821690638bf6374290610edb9088903390899060009081906004016133d1565b600060405180830381600087803b158015610ef557600080fd5b505af1158015610f09573d6000803e3d6000fd5b505050505b610f2084836004888154811061082a57fe5b8373ffffffffffffffffffffffffffffffffffffffff16853373ffffffffffffffffffffffffffffffffffffffff167f2cac5e20e1541d836381527a43f651851e302817b71dc8e810284e69210c1c6b85604051610f7e91906133c8565b60405180910390a45050505050565b60025473ffffffffffffffffffffffffffffffffffffffff16610fdc576040517f08c379a000000000000000000000000000000000000000000000000000000000815260040161058590613251565b600060048281548110610feb57fe5b60009182526020822001546040517f70a0823100000000000000000000000000000000000000000000000000000000815273ffffffffffffffffffffffffffffffffffffffff909116925082906370a082319061104c903090600401612e39565b60206040518083038186803b15801561106457600080fd5b505afa158015611078573d6000803e3d6000fd5b505050506040513d601f19601f8201168201806040525081019061109c9190612cd0565b6002546040517f095ea7b300000000000000000000000000000000000000000000000000000000815291925073ffffffffffffffffffffffffffffffffffffffff8085169263095ea7b3926110f79216908590600401612ed9565b602060405180830381600087803b15801561111157600080fd5b505af1158015611125573d6000803e3d6000fd5b505050506040513d601f19601f820116820180604052508101906111499190612b24565b506002546040517fce5494bb00000000000000000000000000000000000000000000000000000000815260009173ffffffffffffffffffffffffffffffffffffffff169063ce5494bb906111a1908690600401612e39565b602060405180830381600087803b1580156111bb57600080fd5b505af11580156111cf573d6000803e3d6000fd5b505050506040513d601f19601f820116820180604052508101906111f39190612b40565b6040517f70a0823100000000000000000000000000000000000000000000000000000000815290915073ffffffffffffffffffffffffffffffffffffffff8216906370a0823190611248903090600401612e39565b60206040518083038186803b15801561126057600080fd5b505afa158015611274573d6000803e3d6000fd5b505050506040513d601f19601f820116820180604052508101906112989190612cd0565b82146112d0576040517f08c379a0000000000000000000000000000000000000000000000000000000008152600401610585906130e5565b80600485815481106112de57fe5b9060005260206000200160006101000a81548173ffffffffffffffffffffffffffffffffffffffff021916908373ffffffffffffffffffffffffffffffffffffffff16021790555050505050565b60015473ffffffffffffffffffffffffffffffffffffffff1633811461137e576040517f08c379a0000000000000000000000000000000000000000000000000000000008152600401610585906131e5565b6000805460405173ffffffffffffffffffffffffffffffffffffffff808516939216917f8be0079c531659141344cd1fd0a4f28419497f9722a3daafe3b4186f6b6457e091a36000805473ffffffffffffffffffffffffffffffffffffffff9092167fffffffffffffffffffffffff0000000000000000000000000000000000000000928316179055600180549091169055565b61141a6129e7565b6003828154811061142757fe5b60009182526020918290206040805160608101825292909101546fffffffffffffffffffffffffffffffff8116835267ffffffffffffffff70010000000000000000000000000000000082048116948401859052780100000000000000000000000000000000000000000000000090910416908201529150421115611761576000600483815481106114b557fe5b6000918252602090912001546040517f70a0823100000000000000000000000000000000000000000000000000000000815273ffffffffffffffffffffffffffffffffffffffff909116906370a0823190611514903090600401612e39565b60206040518083038186803b15801561152c57600080fd5b505afa158015611540573d6000803e3d6000fd5b505050506040513d601f19601f820116820180604052508101906115649190612cd0565b9050801561161b57600061158f836020015167ffffffffffffffff164261253490919063ffffffff16565b905060006007546115bd856040015167ffffffffffffffff16610d166008548661247690919063ffffffff16565b816115c457fe5b0490506116046115ea846115dd8464e8d4a51000612476565b816115e457fe5b04612718565b85516fffffffffffffffffffffffffffffffff1690612764565b6fffffffffffffffffffffffffffffffff16845250505b611624426127b6565b67ffffffffffffffff166020830152600380548391908590811061164457fe5b6000918252602091829020835191018054848401516040958601517fffffffffffffffffffffffffffffffff000000000000000000000000000000009092166fffffffffffffffffffffffffffffffff909416939093177fffffffffffffffff0000000000000000ffffffffffffffffffffffffffffffff1670010000000000000000000000000000000067ffffffffffffffff948516021777ffffffffffffffffffffffffffffffffffffffffffffffff16780100000000000000000000000000000000000000000000000093909116929092029190911790558301518351915185927f0fc9545022a542541ad085d091fb09a2ab36fee366a4576ab63714ea907ad35392611757929091869161342b565b60405180910390a2505b919050565b8060005b818110156117965761178d84848381811061178157fe5b90506020020135611412565b5060010161176a565b50505050565b600481815481106117a957fe5b60009182526020909120015473ffffffffffffffffffffffffffffffffffffffff16905081565b6040517fd505accf00000000000000000000000000000000000000000000000000000000815273ffffffffffffffffffffffffffffffffffffffff89169063d505accf9061182e908a908a908a908a908a908a908a90600401612e8b565b600060405180830381600087803b15801561184857600080fd5b505af115801561185c573d6000803e3d6000fd5b505050505050505050505050565b60025473ffffffffffffffffffffffffffffffffffffffff1681565b60005473ffffffffffffffffffffffffffffffffffffffff1633146118d7576040517f08c379a0000000000000000000000000000000000000000000000000000000008152600401610585906131b0565b61192c83611926600387815481106118eb57fe5b600091825260209091200154600754907801000000000000000000000000000000000000000000000000900467ffffffffffffffff16612534565b906126db565b600755611938836127b6565b6003858154811061194557fe5b9060005260206000200160000160186101000a81548167ffffffffffffffff021916908367ffffffffffffffff16021790555080156119d557816005858154811061198c57fe5b9060005260206000200160006101000a81548173ffffffffffffffffffffffffffffffffffffffff021916908373ffffffffffffffffffffffffffffffffffffffff1602179055505b80611a0e57600584815481106119e757fe5b60009182526020909120015473ffffffffffffffffffffffffffffffffffffffff16611a10565b815b73ffffffffffffffffffffffffffffffffffffffff16847f95895a6ab1df54420d241b55243258a33e61b2194db66c1179ec521aae8e18658584604051611a5892919061340d565b60405180910390a350505050565b60005473ffffffffffffffffffffffffffffffffffffffff1681565b611a8a6129e7565b611a9384611412565b600085815260066020908152604080832073ffffffffffffffffffffffffffffffffffffffff871684529091529020805491925090611ad290856126db565b81558151611b129064e8d4a5100090611afe9087906fffffffffffffffffffffffffffffffff16612476565b81611b0557fe5b60018401549190046127fa565b8160010181905550600060058681548110611b2957fe5b60009182526020909120015473ffffffffffffffffffffffffffffffffffffffff1690508015611be25781546040517f8bf6374200000000000000000000000000000000000000000000000000000000815273ffffffffffffffffffffffffffffffffffffffff831691638bf6374291611baf918a9189918291600091906004016133d1565b600060405180830381600087803b158015611bc957600080fd5b505af1158015611bdd573d6000803e3d6000fd5b505050505b611c1f33308760048a81548110611bf557fe5b60009182526020909120015473ffffffffffffffffffffffffffffffffffffffff1692919061285a565b8373ffffffffffffffffffffffffffffffffffffffff16863373ffffffffffffffffffffffffffffffffffffffff167f02d7e648dd130fc184d383e55bb126ac4c9c60e8f94bf05acdf557ba2d540b47886040516108b191906133c8565b60066020908152600092835260408084209091529082529020805460019091015482565b60005473ffffffffffffffffffffffffffffffffffffffff163314611cf2576040517f08c379a0000000000000000000000000000000000000000000000000000000008152600401610585906131b0565b60088190556040517fc6ce5eff3291fb2c1517b943daa5067ea76c83816bbf674307fbc7fea3b311d090611d279083906133c8565b60405180910390a150565b60085481565b7f000000000000000000000000000000000000000000000000000000000000000081565b60005473ffffffffffffffffffffffffffffffffffffffff163314611dad576040517f08c379a0000000000000000000000000000000000000000000000000000000008152600401610585906131b0565b600754611dba90846126db565b6007556004805460018181019092557f8a35acfbc15ff81a39ae7d344fd709f28e8600b4aa8c65c6b64bfe7fe36bd19b01805473ffffffffffffffffffffffffffffffffffffffff8086167fffffffffffffffffffffffff00000000000000000000000000000000000000009283161790925560058054938401815560009081527f036b6384b5eca791c62761152d0c79bb0604c104a5fb6f4eb0703f3154bb3db0909301805492851692909116919091179055604080516060810190915290815260039060208101611e8c426127b6565b67ffffffffffffffff168152602001611ea4866127b6565b67ffffffffffffffff908116909152825460018181018555600094855260209485902084519201805495850151604090950151841678010000000000000000000000000000000000000000000000000277ffffffffffffffffffffffffffffffffffffffffffffffff95909416700100000000000000000000000000000000027fffffffffffffffff0000000000000000ffffffffffffffffffffffffffffffff6fffffffffffffffffffffffffffffffff9094167fffffffffffffffffffffffffffffffff000000000000000000000000000000009097169690961792909216949094179290921617905560045473ffffffffffffffffffffffffffffffffffffffff8084169290851691611fb991612534565b7f81ee0f8c5c46e2cb41984886f77a84181724abb86c32a5f6de539b07509d45e586604051611fe891906133c8565b60405180910390a4505050565b600581815481106117a957fe5b61200a6129e7565b61201384611412565b6000858152600660209081526040808320338452909152812082518154939450909264e8d4a510009161205891906fffffffffffffffffffffffffffffffff16612476565b8161205f57fe5b049050600061207e6109b18460010154846124cd90919063ffffffff16565b90506120c264e8d4a510006120b286600001516fffffffffffffffffffffffffffffffff168961247690919063ffffffff16565b816120b957fe5b849190046124cd565b600184015582546120d39087612534565b835561211673ffffffffffffffffffffffffffffffffffffffff7f0000000000000000000000000000000000000000000000000000000000000000168683612571565b60006005888154811061212557fe5b60009182526020909120015473ffffffffffffffffffffffffffffffffffffffff16905080156121dd5783546040517f8bf6374200000000000000000000000000000000000000000000000000000000815273ffffffffffffffffffffffffffffffffffffffff831691638bf63742916121aa918c9133918c918991906004016133d1565b600060405180830381600087803b1580156121c457600080fd5b505af11580156121d8573d6000803e3d6000fd5b505050505b6121ef868860048b8154811061082a57fe5b8573ffffffffffffffffffffffffffffffffffffffff16883373ffffffffffffffffffffffffffffffffffffffff167f8166bf25f8a2b7ed3c85049207da4358d16edbed977d23fa2ee6f0dde3ec21328a60405161224d91906133c8565b60405180910390a4873373ffffffffffffffffffffffffffffffffffffffff167f71bab65ced2e5750775a0613be067df48ef06cf92a496ebf7663ae06609249548460405161229c91906133c8565b60405180910390a35050505050505050565b6060808367ffffffffffffffff811180156122c857600080fd5b506040519080825280602002602001820160405280156122f2578160200160208202803683370190505b5091508367ffffffffffffffff8111801561230c57600080fd5b5060405190808252806020026020018201604052801561234057816020015b606081526020019060019003908161232b5790505b50905060005b8481101561245157600060603088888581811061235f57fe5b9050602002810190612371919061345f565b60405161237f929190612e0d565b600060405180830381855af49150503d80600081146123ba576040519150601f19603f3d011682016040523d82523d6000602084013e6123bf565b606091505b509150915081806123ce575085155b6123d782612987565b9061240f576040517f08c379a00000000000000000000000000000000000000000000000000000000081526004016105859190612f99565b508185848151811061241d57fe5b6020026020010190151590811515815250508084848151811061243c57fe5b60209081029190910101525050600101612346565b50935093915050565b60015473ffffffffffffffffffffffffffffffffffffffff1681565b60008115806124915750508082028282828161248e57fe5b04145b6124c7576040517f08c379a00000000000000000000000000000000000000000000000000000000081526004016105859061331a565b92915050565b60008183038183128015906124e25750838113155b806124f757506000831280156124f757508381135b61252d576040517f08c379a000000000000000000000000000000000000000000000000000000000815260040161058590613288565b9392505050565b808203828111156124c7576040517f08c379a000000000000000000000000000000000000000000000000000000000815260040161058590612fac565b600060608473ffffffffffffffffffffffffffffffffffffffff1663a9059cbb85856040516024016125a4929190612ed9565b6040516020818303038152906040529060e01b6020820180517bffffffffffffffffffffffffffffffffffffffffffffffffffffffff83818316178352505050506040516125f29190612e1d565b6000604051808303816000865af19150503d806000811461262f576040519150601f19603f3d011682016040523d82523d6000602084013e612634565b606091505b509150915081801561265e57508051158061265e57508080602001905181019061265e9190612b24565b612694576040517f08c379a00000000000000000000000000000000000000000000000000000000081526004016105859061301a565b5050505050565b6000808212156126d7576040517f08c379a000000000000000000000000000000000000000000000000000000000815260040161058590612fe3565b5090565b818101818110156124c7576040517f08c379a000000000000000000000000000000000000000000000000000000000815260040161058590613179565b60006fffffffffffffffffffffffffffffffff8211156126d7576040517f08c379a000000000000000000000000000000000000000000000000000000000815260040161058590613142565b8181016fffffffffffffffffffffffffffffffff80831690821610156124c7576040517f08c379a000000000000000000000000000000000000000000000000000000000815260040161058590613179565b600067ffffffffffffffff8211156126d7576040517f08c379a00000000000000000000000000000000000000000000000000000000081526004016105859061321a565b600082820181831280159061280f5750838112155b80612824575060008312801561282457508381125b61252d576040517f08c379a000000000000000000000000000000000000000000000000000000000815260040161058590613051565b600060608573ffffffffffffffffffffffffffffffffffffffff166323b872dd86868660405160240161288f93929190612e5a565b6040516020818303038152906040529060e01b6020820180517bffffffffffffffffffffffffffffffffffffffffffffffffffffffff83818316178352505050506040516128dd9190612e1d565b6000604051808303816000865af19150503d806000811461291a576040519150601f19603f3d011682016040523d82523d6000602084013e61291f565b606091505b50915091508180156129495750805115806129495750808060200190518101906129499190612b24565b61297f576040517f08c379a0000000000000000000000000000000000000000000000000000000008152600401610585906132e5565b505050505050565b60606044825110156129cd575060408051808201909152601d81527f5472616e73616374696f6e2072657665727465642073696c656e746c790000006020820152611761565b600482019150818060200190518101906124c79190612bff565b604080516060810182526000808252602082018190529181019190915290565b60008083601f840112612a18578182fd5b50813567ffffffffffffffff811115612a2f578182fd5b6020830191508360208083028501011115612a4957600080fd5b9250929050565b600080600060608486031215612a64578283fd5b8335612a6f816134ee565b92506020840135612a7f81613513565b91506040840135612a8f81613513565b809150509250925092565b600080600060408486031215612aae578283fd5b833567ffffffffffffffff811115612ac4578384fd5b612ad086828701612a07565b9094509250506020840135612a8f81613513565b60008060208385031215612af6578182fd5b823567ffffffffffffffff811115612b0c578283fd5b612b1885828601612a07565b90969095509350505050565b600060208284031215612b35578081fd5b815161252d81613513565b600060208284031215612b51578081fd5b815161252d816134ee565b600080600080600080600080610100898b031215612b78578384fd5b8835612b83816134ee565b97506020890135612b93816134ee565b96506040890135612ba3816134ee565b9550606089013594506080890135935060a089013560ff81168114612bc6578384fd5b979a969950949793969295929450505060c08201359160e0013590565b600060208284031215612bf4578081fd5b813561252d816134ee565b600060208284031215612c10578081fd5b815167ffffffffffffffff80821115612c27578283fd5b818401915084601f830112612c3a578283fd5b815181811115612c48578384fd5b60405160207fffffffffffffffffffffffffffffffffffffffffffffffffffffffffffffffe0601f8401168201018181108482111715612c86578586fd5b604052818152838201602001871015612c9d578485fd5b612cae8260208301602087016134c2565b9695505050505050565b600060208284031215612cc9578081fd5b5035919050565b600060208284031215612ce1578081fd5b5051919050565b60008060408385031215612cfa578182fd5b823591506020830135612d0c816134ee565b809150509250929050565b600080600060608486031215612d2b578081fd5b833592506020840135612d3d816134ee565b91506040840135612a8f816134ee565b600080600060608486031215612d61578081fd5b83359250602084013591506040840135612a8f816134ee565b60008060008060808587031215612d8f578182fd5b84359350602085013592506040850135612da8816134ee565b91506060850135612db881613513565b939692955090935050565b60008151808452612ddb8160208601602086016134c2565b601f017fffffffffffffffffffffffffffffffffffffffffffffffffffffffffffffffe0169290920160200192915050565b6000828483379101908152919050565b60008251612e2f8184602087016134c2565b9190910192915050565b73ffffffffffffffffffffffffffffffffffffffff91909116815260200190565b73ffffffffffffffffffffffffffffffffffffffff9384168152919092166020820152604081019190915260600190565b73ffffffffffffffffffffffffffffffffffffffff97881681529590961660208601526040850193909352606084019190915260ff16608083015260a082015260c081019190915260e00190565b73ffffffffffffffffffffffffffffffffffffffff929092168252602082015260400190565b604080825283519082018190526000906020906060840190828701845b82811015612f3a578151151584529284019290840190600101612f1c565b50505083810382850152808551612f5181846133c8565b91508192508381028201848801865b83811015612f8a578583038552612f78838351612dc3565b94870194925090860190600101612f60565b50909998505050505050505050565b60006020825261252d6020830184612dc3565b60208082526015908201527f426f72696e674d6174683a20556e646572666c6f770000000000000000000000604082015260600190565b6020808252600b908201527f496e7465676572203c2030000000000000000000000000000000000000000000604082015260600190565b6020808252601c908201527f426f72696e6745524332303a205472616e73666572206661696c656400000000604082015260600190565b60208082526021908201527f5369676e6564536166654d6174683a206164646974696f6e206f766572666c6f60408201527f7700000000000000000000000000000000000000000000000000000000000000606082015260800190565b60208082526015908201527f4f776e61626c653a207a65726f20616464726573730000000000000000000000604082015260600190565b60208082526029908201527f4d61737465724368656656323a206d696772617465642062616c616e6365206d60408201527f757374206d617463680000000000000000000000000000000000000000000000606082015260800190565b6020808252601c908201527f426f72696e674d6174683a2075696e74313238204f766572666c6f7700000000604082015260600190565b60208082526018908201527f426f72696e674d6174683a20416464204f766572666c6f770000000000000000604082015260600190565b6020808252818101527f4f776e61626c653a2063616c6c6572206973206e6f7420746865206f776e6572604082015260600190565b6020808252818101527f4f776e61626c653a2063616c6c657220213d2070656e64696e67206f776e6572604082015260600190565b6020808252601b908201527f426f72696e674d6174683a2075696e743634204f766572666c6f770000000000604082015260600190565b6020808252601d908201527f4d61737465724368656656323a206e6f206d69677261746f7220736574000000604082015260600190565b60208082526024908201527f5369676e6564536166654d6174683a207375627472616374696f6e206f76657260408201527f666c6f7700000000000000000000000000000000000000000000000000000000606082015260800190565b6020808252818101527f426f72696e6745524332303a205472616e7366657246726f6d206661696c6564604082015260600190565b60208082526018908201527f426f72696e674d6174683a204d756c204f766572666c6f770000000000000000604082015260600190565b81516fffffffffffffffffffffffffffffffff16815260208083015167ffffffffffffffff90811691830191909152604092830151169181019190915260600190565b6fffffffffffffffffffffffffffffffff93909316835267ffffffffffffffff918216602084015216604082015260600190565b90815260200190565b94855273ffffffffffffffffffffffffffffffffffffffff93841660208601529190921660408401526060830191909152608082015260a00190565b9182521515602082015260400190565b918252602082015260400190565b67ffffffffffffffff93909316835260208301919091526fffffffffffffffffffffffffffffffff16604082015260600190565b60008083357fffffffffffffffffffffffffffffffffffffffffffffffffffffffffffffffe1843603018112613493578283fd5b83018035915067ffffffffffffffff8211156134ad578283fd5b602001915036819003821315612a4957600080fd5b60005b838110156134dd5781810151838201526020016134c5565b838111156117965750506000910152565b73ffffffffffffffffffffffffffffffffffffffff8116811461351057600080fd5b50565b801515811461351057600080fdfea164736f6c634300060c000a",
    "linkReferences": {}
  }
}