{
  "abi": [
    {
      "inputs": [
        {
          "internalType": "contract SushiToken",
          "name": "_sushi",
          "type": "address"
        },
        {
          "internalType": "address",
          "name": "_devaddr",
          "type": "address"
        },
        {
          "internalType": "uint256",
          "name": "_sushiPerBlock",
          "type": "uint256"
        },
        {
          "internalType": "uint256",
          "name": "_startBlock",
          "type": "uint256"
        },
        {
          "internalType": "uint256",
          "name": "_bonusEndBlock",
          "type": "uint256"
        }
      ],
      "stateMutability": "nonpayable",
      "type": "constructor"
    },
    {
      "anonymous": false,
      "inputs": [
        {
          "indexed": true,
          "internalType": "address",
          "name": "user",
          "type": "address"
        },
        {
          "indexed": true,
          "internalType": "uint256",
          "name": "pid",
          "type": "uint256"
        },
        {
          "indexed": false,
          "internalType": "uint256",
          "name": "amount",
          "type": "uint256"
        }
      ],
      "name": "Deposit",
      "type": "event"
    },
    {
      "anonymous": false,
      "inputs": [
        {
          "indexed": true,
          "internalType": "address",
          "name": "user",
          "type": "address"
        },
        {
          "indexed": true,
          "internalType": "uint256",
          "name": "pid",
          "type": "uint256"
        },
        {
          "indexed": false,
          "internalType": "uint256",
          "name": "amount",
          "type": "uint256"
        }
      ],
      "name": "EmergencyWithdraw",
      "type": "event"
    },
    {
      "anonymous": false,
      "inputs": [
        {
          "indexed": true,
          "internalType": "address",
          "name": "previousOwner",
          "type": "address"
        },
        {
          "indexed": true,
          "internalType": "address",
          "name": "newOwner",
          "type": "address"
        }
      ],
      "name": "OwnershipTransferred",
      "type": "event"
    },
    {
      "anonymous": false,
      "inputs": [
        {
          "indexed": true,
          "internalType": "address",
          "name": "user",
          "type": "address"
        },
        {
          "indexed": true,
          "internalType": "uint256",
          "name": "pid",
          "type": "uint256"
        },
        {
          "indexed": false,
          "internalType": "uint256",
          "name": "amount",
          "type": "uint256"
        }
      ],
      "name": "Withdraw",
      "type": "event"
    },
    {
      "inputs": [],
      "name": "BONUS_MULTIPLIER",
      "outputs": [
        {
          "internalType": "uint256",
          "name": "",
          "type": "uint256"
        }
      ],
      "stateMutability": "view",
      "type": "function"
    },
    {
      "inputs": [
        {
          "internalType": "uint256",
          "name": "_allocPoint",
          "type": "uint256"
        },
        {
          "internalType": "contract IERC20",
          "name": "_lpToken",
          "type": "address"
        },
        {
          "internalType": "bool",
          "name": "_withUpdate",
          "type": "bool"
        }
      ],
      "name": "add",
      "outputs": [],
      "stateMutability": "nonpayable",
      "type": "function"
    },
    {
      "inputs": [],
      "name": "bonusEndBlock",
      "outputs": [
        {
          "internalType": "uint256",
          "name": "",
          "type": "uint256"
        }
      ],
      "stateMutability": "view",
      "type": "function"
    },
    {
      "inputs": [
        {
          "internalType": "uint256",
          "name": "_pid",
          "type": "uint256"
        },
        {
          "internalType": "uint256",
          "name": "_amount",
          "type": "uint256"
        }
      ],
      "name": "deposit",
      "outputs": [],
      "stateMutability": "nonpayable",
      "type": "function"
    },
    {
      "inputs": [
        {
          "internalType": "address",
          "name": "_devaddr",
          "type": "address"
        }
      ],
      "name": "dev",
      "outputs": [],
      "stateMutability": "nonpayable",
      "type": "function"
    },
    {
      "inputs": [],
      "name": "devaddr",
      "outputs": [
        {
          "internalType": "address",
          "name": "",
          "type": "address"
        }
      ],
      "stateMutability": "view",
      "type": "function"
    },
    {
      "inputs": [
        {
          "internalType": "uint256",
          "name": "_pid",
          "type": "uint256"
        }
      ],
      "name": "emergencyWithdraw",
      "outputs": [],
      "stateMutability": "nonpayable",
      "type": "function"
    },
    {
      "inputs": [
        {
          "internalType": "uint256",
          "name": "_from",
          "type": "uint256"
        },
        {
          "internalType": "uint256",
          "name": "_to",
          "type": "uint256"
        }
      ],
      "name": "getMultiplier",
      "outputs": [
        {
          "internalType": "uint256",
          "name": "",
          "type": "uint256"
        }
      ],
      "stateMutability": "view",
      "type": "function"
    },
    {
      "inputs": [],
      "name": "massUpdatePools",
      "outputs": [],
      "stateMutability": "nonpayable",
      "type": "function"
    },
    {
      "inputs": [
        {
          "internalType": "uint256",
          "name": "_pid",
          "type": "uint256"
        }
      ],
      "name": "migrate",
      "outputs": [],
      "stateMutability": "nonpayable",
      "type": "function"
    },
    {
      "inputs": [],
      "name": "migrator",
      "outputs": [
        {
          "internalType": "contract IMigratorChef",
          "name": "",
          "type": "address"
        }
      ],
      "stateMutability": "view",
      "type": "function"
    },
    {
      "inputs": [],
      "name": "owner",
      "outputs": [
        {
          "internalType": "address",
          "name": "",
          "type": "address"
        }
      ],
      "stateMutability": "view",
      "type": "function"
    },
    {
      "inputs": [
        {
          "internalType": "uint256",
          "name": "_pid",
          "type": "uint256"
        },
        {
          "internalType": "address",
          "name": "_user",
          "type": "address"
        }
      ],
      "name": "pendingSushi",
      "outputs": [
        {
          "internalType": "uint256",
          "name": "",
          "type": "uint256"
        }
      ],
      "stateMutability": "view",
      "type": "function"
    },
    {
      "inputs": [
        {
          "internalType": "uint256",
          "name": "",
          "type": "uint256"
        }
      ],
      "name": "poolInfo",
      "outputs": [
        {
          "internalType": "contract IERC20",
          "name": "lpToken",
          "type": "address"
        },
        {
          "internalType": "uint256",
          "name": "allocPoint",
          "type": "uint256"
        },
        {
          "internalType": "uint256",
          "name": "lastRewardBlock",
          "type": "uint256"
        },
        {
          "internalType": "uint256",
          "name": "accSushiPerShare",
          "type": "uint256"
        }
      ],
      "stateMutability": "view",
      "type": "function"
    },
    {
      "inputs": [],
      "name": "poolLength",
      "outputs": [
        {
          "internalType": "uint256",
          "name": "",
          "type": "uint256"
        }
      ],
      "stateMutability": "view",
      "type": "function"
    },
    {
      "inputs": [],
      "name": "renounceOwnership",
      "outputs": [],
      "stateMutability": "nonpayable",
      "type": "function"
    },
    {
      "inputs": [
        {
          "internalType": "uint256",
          "name": "_pid",
          "type": "uint256"
        },
        {
          "internalType": "uint256",
          "name": "_allocPoint",
          "type": "uint256"
        },
        {
          "internalType": "bool",
          "name": "_withUpdate",
          "type": "bool"
        }
      ],
      "name": "set",
      "outputs": [],
      "stateMutability": "nonpayable",
      "type": "function"
    },
    {
      "inputs": [
        {
          "internalType": "contract IMigratorChef",
          "name": "_migrator",
          "type": "address"
        }
      ],
      "name": "setMigrator",
      "outputs": [],
      "stateMutability": "nonpayable",
      "type": "function"
    },
    {
      "inputs": [],
      "name": "startBlock",
      "outputs": [
        {
          "internalType": "uint256",
          "name": "",
          "type": "uint256"
        }
      ],
      "stateMutability": "view",
      "type": "function"
    },
    {
      "inputs": [],
      "name": "sushi",
      "outputs": [
        {
          "internalType": "contract SushiToken",
          "name": "",
          "type": "address"
        }
      ],
      "stateMutability": "view",
      "type": "function"
    },
    {
      "inputs": [],
      "name": "sushiPerBlock",
      "outputs": [
        {
          "internalType": "uint256",
          "name": "",
          "type": "uint256"
        }
      ],
      "stateMutability": "view",
      "type": "function"
    },
    {
      "inputs": [],
      "name": "totalAllocPoint",
      "outputs": [
        {
          "internalType": "uint256",
          "name": "",
          "type": "uint256"
        }
      ],
      "stateMutability": "view",
      "type": "function"
    },
    {
      "inputs": [
        {
          "internalType": "address",
          "name": "newOwner",
          "type": "address"
        }
      ],
      "name": "transferOwnership",
      "outputs": [],
      "stateMutability": "nonpayable",
      "type": "function"
    },
    {
      "inputs": [
        {
          "internalType": "uint256",
          "name": "_pid",
          "type": "uint256"
        }
      ],
      "name": "updatePool",
      "outputs": [],
      "stateMutability": "nonpayable",
      "type": "function"
    },
    {
      "inputs": [
        {
          "internalType": "uint256",
          "name": "",
          "type": "uint256"
        },
        {
          "internalType": "address",
          "name": "",
          "type": "address"
        }
      ],
      "name": "userInfo",
      "outputs": [
        {
          "internalType": "uint256",
          "name": "amount",
          "type": "uint256"
        },
        {
          "internalType": "uint256",
          "name": "rewardDebt",
          "type": "uint256"
        }
      ],
      "stateMutability": "view",
      "type": "function"
    },
    {
      "inputs": [
        {
          "internalType": "uint256",
          "name": "_pid",
          "type": "uint256"
        },
        {
          "internalType": "uint256",
          "name": "_amount",
          "type": "uint256"
        }
      ],
      "name": "withdraw",
      "outputs": [],
      "stateMutability": "nonpayable",
      "type": "function"
    }
  ],
  "bytecode": {
    "object": "0x6080604052600060085534801561001557600080fd5b506040516124a53803806124a5833981810160405260a081101561003857600080fd5b5080516020820151604083015160608401516080909401519293919290919060006100616100e9565b600080546001600160a01b0319166001600160a01b0383169081178255604051929350917f8be0079c531659141344cd1fd0a4f28419497f9722a3daafe3b4186f6b6457e0908290a350600180546001600160a01b039687166001600160a01b03199182161790915560028054959096169416939093179093556004556003556009556100ed565b3390565b6123a9806100fc6000396000f3fe608060405234801561001057600080fd5b50600436106101ae5760003560e01c8063630b5ba1116100ee5780638da5cb5b11610097578063b0bcf42a11610071578063b0bcf42a14610494578063d49e77cd1461049c578063e2bbb158146104a4578063f2fde38b146104c7576101ae565b80638da5cb5b146104175780638dbb1e3a1461041f57806393f1a40b14610442576101ae565b80637cd07e47116100c85780637cd07e47146103d45780638aa28550146103dc5780638d88a90e146103e4576101ae565b8063630b5ba11461039957806364482f79146103a1578063715018a6146103cc576101ae565b80631eaaa0451161015b578063454b060811610135578063454b06081461033a57806348cd4cb11461035757806351eb05a61461035f5780635312ea8e1461037c576101ae565b80631eaaa045146102a157806323cf3118146102e4578063441a3e7014610317576101ae565b806317caf6f11161018c57806317caf6f114610258578063195426ec146102605780631aed655314610299576101ae565b8063081e3eda146101b35780630a087903146101cd5780631526fe27146101fe575b600080fd5b6101bb6104fa565b60408051918252519081900360200190f35b6101d5610500565b6040805173ffffffffffffffffffffffffffffffffffffffff9092168252519081900360200190f35b61021b6004803603602081101561021457600080fd5b503561051c565b6040805173ffffffffffffffffffffffffffffffffffffffff90951685526020850193909352838301919091526060830152519081900360800190f35b6101bb61056a565b6101bb6004803603604081101561027657600080fd5b508035906020013573ffffffffffffffffffffffffffffffffffffffff16610570565b6101bb61070c565b6102e2600480360360608110156102b757600080fd5b5080359073ffffffffffffffffffffffffffffffffffffffff60208201351690604001351515610712565b005b6102e2600480360360208110156102fa57600080fd5b503573ffffffffffffffffffffffffffffffffffffffff16610902565b6102e26004803603604081101561032d57600080fd5b50803590602001356109f1565b6102e26004803603602081101561035057600080fd5b5035610b6a565b6101bb610ec5565b6102e26004803603602081101561037557600080fd5b5035610ecb565b6102e26004803603602081101561039257600080fd5b5035611152565b6102e26111fa565b6102e2600480360360608110156103b757600080fd5b5080359060208101359060400135151561121d565b6102e261133e565b6101d5611455565b6101bb611471565b6102e2600480360360208110156103fa57600080fd5b503573ffffffffffffffffffffffffffffffffffffffff16611476565b6101d5611543565b6101bb6004803603604081101561043557600080fd5b508035906020013561155f565b61047b6004803603604081101561045857600080fd5b508035906020013573ffffffffffffffffffffffffffffffffffffffff166115c5565b6040805192835260208301919091528051918290030190f35b6101bb6115e9565b6101d56115ef565b6102e2600480360360408110156104ba57600080fd5b508035906020013561160b565b6102e2600480360360208110156104dd57600080fd5b503573ffffffffffffffffffffffffffffffffffffffff1661171d565b60065490565b60015473ffffffffffffffffffffffffffffffffffffffff1681565b6006818154811061052957fe5b6000918252602090912060049091020180546001820154600283015460039093015473ffffffffffffffffffffffffffffffffffffffff9092169350919084565b60085481565b6000806006848154811061058057fe5b6000918252602080832087845260078252604080852073ffffffffffffffffffffffffffffffffffffffff898116875290845281862060049586029093016003810154815484517f70a082310000000000000000000000000000000000000000000000000000000081523098810198909852935191985093969395939492909116926370a08231926024808301939192829003018186803b15801561062457600080fd5b505afa158015610638573d6000803e3d6000fd5b505050506040513d602081101561064e57600080fd5b505160028501549091504311801561066557508015155b156106d157600061067a85600201544361155f565b905060006106ad6008546106a788600101546106a1600454876118be90919063ffffffff16565b906118be565b90611938565b90506106cc6106c5846106a78464e8d4a510006118be565b85906119b9565b935050505b6106ff83600101546106f964e8d4a510006106a78688600001546118be90919063ffffffff16565b90611a2d565b9450505050505b92915050565b60035481565b61071a611aa4565b73ffffffffffffffffffffffffffffffffffffffff16610738611543565b73ffffffffffffffffffffffffffffffffffffffff16146107ba57604080517f08c379a000000000000000000000000000000000000000000000000000000000815260206004820181905260248201527f4f776e61626c653a2063616c6c6572206973206e6f7420746865206f776e6572604482015290519081900360640190fd5b80156107c8576107c86111fa565b600060095443116107db576009546107dd565b435b6008549091506107ed90856119b9565b6008556040805160808101825273ffffffffffffffffffffffffffffffffffffffff94851681526020810195865290810191825260006060820181815260068054600181018255925291517ff652222313e28459528d920b65115c16c04f3efc82aaedc97be59f3f377c0d3f600490920291820180547fffffffffffffffffffffffff000000000000000000000000000000000000000016919096161790945593517ff652222313e28459528d920b65115c16c04f3efc82aaedc97be59f3f377c0d40840155517ff652222313e28459528d920b65115c16c04f3efc82aaedc97be59f3f377c0d418301555090517ff652222313e28459528d920b65115c16c04f3efc82aaedc97be59f3f377c0d4290910155565b61090a611aa4565b73ffffffffffffffffffffffffffffffffffffffff16610928611543565b73ffffffffffffffffffffffffffffffffffffffff16146109aa57604080517f08c379a000000000000000000000000000000000000000000000000000000000815260206004820181905260248201527f4f776e61626c653a2063616c6c6572206973206e6f7420746865206f776e6572604482015290519081900360640190fd5b600580547fffffffffffffffffffffffff00000000000000000000000000000000000000001673ffffffffffffffffffffffffffffffffffffffff92909216919091179055565b600060068381548110610a0057fe5b600091825260208083208684526007825260408085203386529092529220805460049092029092019250831115610a9857604080517f08c379a000000000000000000000000000000000000000000000000000000000815260206004820152601260248201527f77697468647261773a206e6f7420676f6f640000000000000000000000000000604482015290519081900360640190fd5b610aa184610ecb565b6000610acf82600101546106f964e8d4a510006106a7876003015487600001546118be90919063ffffffff16565b9050610adb3382611aa8565b8154610ae79085611a2d565b8083556003840154610b049164e8d4a51000916106a791906118be565b60018301558254610b2c9073ffffffffffffffffffffffffffffffffffffffff163386611cab565b604080518581529051869133917ff279e6a1f5e320cca91135676d9cb6e44ca8a08c0b88342bcdb1144f6511b5689181900360200190a35050505050565b60055473ffffffffffffffffffffffffffffffffffffffff16610bee57604080517f08c379a000000000000000000000000000000000000000000000000000000000815260206004820152601460248201527f6d6967726174653a206e6f206d69677261746f72000000000000000000000000604482015290519081900360640190fd5b600060068281548110610bfd57fe5b600091825260208083206004928302018054604080517f70a0823100000000000000000000000000000000000000000000000000000000815230958101959095525191955073ffffffffffffffffffffffffffffffffffffffff16939284926370a0823192602480840193829003018186803b158015610c7c57600080fd5b505afa158015610c90573d6000803e3d6000fd5b505050506040513d6020811015610ca657600080fd5b5051600554909150610cd29073ffffffffffffffffffffffffffffffffffffffff848116911683611d38565b600554604080517fce5494bb00000000000000000000000000000000000000000000000000000000815273ffffffffffffffffffffffffffffffffffffffff85811660048301529151600093929092169163ce5494bb9160248082019260209290919082900301818787803b158015610d4a57600080fd5b505af1158015610d5e573d6000803e3d6000fd5b505050506040513d6020811015610d7457600080fd5b5051604080517f70a08231000000000000000000000000000000000000000000000000000000008152306004820152905191925073ffffffffffffffffffffffffffffffffffffffff8316916370a0823191602480820192602092909190829003018186803b158015610de657600080fd5b505afa158015610dfa573d6000803e3d6000fd5b505050506040513d6020811015610e1057600080fd5b50518214610e7f57604080517f08c379a000000000000000000000000000000000000000000000000000000000815260206004820152600c60248201527f6d6967726174653a206261640000000000000000000000000000000000000000604482015290519081900360640190fd5b83547fffffffffffffffffffffffff00000000000000000000000000000000000000001673ffffffffffffffffffffffffffffffffffffffff9190911617909255505050565b60095481565b600060068281548110610eda57fe5b9060005260206000209060040201905080600201544311610efb575061114f565b8054604080517f70a08231000000000000000000000000000000000000000000000000000000008152306004820152905160009273ffffffffffffffffffffffffffffffffffffffff16916370a08231916024808301926020929190829003018186803b158015610f6b57600080fd5b505afa158015610f7f573d6000803e3d6000fd5b505050506040513d6020811015610f9557600080fd5b5051905080610fab57504360029091015561114f565b6000610fbb83600201544361155f565b90506000610fe26008546106a786600101546106a1600454876118be90919063ffffffff16565b60015460025491925073ffffffffffffffffffffffffffffffffffffffff908116916340c10f19911661101684600a611938565b6040518363ffffffff1660e01b8152600401808373ffffffffffffffffffffffffffffffffffffffff16815260200182815260200192505050600060405180830381600087803b15801561106957600080fd5b505af115801561107d573d6000803e3d6000fd5b5050600154604080517f40c10f1900000000000000000000000000000000000000000000000000000000815230600482015260248101869052905173ffffffffffffffffffffffffffffffffffffffff90921693506340c10f19925060448082019260009290919082900301818387803b1580156110fa57600080fd5b505af115801561110e573d6000803e3d6000fd5b5050505061113c611131846106a764e8d4a51000856118be90919063ffffffff16565b6003860154906119b9565b6003850155505043600290920191909155505b50565b60006006828154811061116157fe5b600091825260208083208584526007825260408085203380875293529093208054600490930290930180549094506111b39273ffffffffffffffffffffffffffffffffffffffff919091169190611cab565b80546040805191825251849133917fbb757047c2b5f3974fe26b7c10f732e7bce710b0952a71082702781e62ae05959181900360200190a360008082556001909101555050565b60065460005b818110156112195761121181610ecb565b600101611200565b5050565b611225611aa4565b73ffffffffffffffffffffffffffffffffffffffff16611243611543565b73ffffffffffffffffffffffffffffffffffffffff16146112c557604080517f08c379a000000000000000000000000000000000000000000000000000000000815260206004820181905260248201527f4f776e61626c653a2063616c6c6572206973206e6f7420746865206f776e6572604482015290519081900360640190fd5b80156112d3576112d36111fa565b6113108261130a600686815481106112e757fe5b906000526020600020906004020160010154600854611a2d90919063ffffffff16565b906119b9565b600881905550816006848154811061132457fe5b906000526020600020906004020160010181905550505050565b611346611aa4565b73ffffffffffffffffffffffffffffffffffffffff16611364611543565b73ffffffffffffffffffffffffffffffffffffffff16146113e657604080517f08c379a000000000000000000000000000000000000000000000000000000000815260206004820181905260248201527f4f776e61626c653a2063616c6c6572206973206e6f7420746865206f776e6572604482015290519081900360640190fd5b6000805460405173ffffffffffffffffffffffffffffffffffffffff909116907f8be0079c531659141344cd1fd0a4f28419497f9722a3daafe3b4186f6b6457e0908390a3600080547fffffffffffffffffffffffff0000000000000000000000000000000000000000169055565b60055473ffffffffffffffffffffffffffffffffffffffff1681565b600181565b60025473ffffffffffffffffffffffffffffffffffffffff1633146114fc57604080517f08c379a000000000000000000000000000000000000000000000000000000000815260206004820152600960248201527f6465763a207775743f0000000000000000000000000000000000000000000000604482015290519081900360640190fd5b600280547fffffffffffffffffffffffff00000000000000000000000000000000000000001673ffffffffffffffffffffffffffffffffffffffff92909216919091179055565b60005473ffffffffffffffffffffffffffffffffffffffff1690565b600060035482116115805761157960016106a18486611a2d565b9050610706565b6003548310611593576115798284611a2d565b6115796115ab60035484611a2d90919063ffffffff16565b61130a60016106a187600354611a2d90919063ffffffff16565b60076020908152600092835260408084209091529082529020805460019091015482565b60045481565b60025473ffffffffffffffffffffffffffffffffffffffff1681565b60006006838154811061161a57fe5b6000918252602080832086845260078252604080852033865290925292206004909102909101915061164b84610ecb565b80541561168e57600061168082600101546106f964e8d4a510006106a7876003015487600001546118be90919063ffffffff16565b905061168c3382611aa8565b505b81546116b29073ffffffffffffffffffffffffffffffffffffffff16333086611ec6565b80546116be90846119b9565b80825560038301546116db9164e8d4a51000916106a791906118be565b6001820155604080518481529051859133917f90890809c654f11d6e72a28fa60149770a0d11ec6c92319d6ceb2bb0a4ea1a159181900360200190a350505050565b611725611aa4565b73ffffffffffffffffffffffffffffffffffffffff16611743611543565b73ffffffffffffffffffffffffffffffffffffffff16146117c557604080517f08c379a000000000000000000000000000000000000000000000000000000000815260206004820181905260248201527f4f776e61626c653a2063616c6c6572206973206e6f7420746865206f776e6572604482015290519081900360640190fd5b73ffffffffffffffffffffffffffffffffffffffff8116611831576040517f08c379a00000000000000000000000000000000000000000000000000000000081526004018080602001828103825260268152602001806122d06026913960400191505060405180910390fd5b6000805460405173ffffffffffffffffffffffffffffffffffffffff808516939216917f8be0079c531659141344cd1fd0a4f28419497f9722a3daafe3b4186f6b6457e091a3600080547fffffffffffffffffffffffff00000000000000000000000000000000000000001673ffffffffffffffffffffffffffffffffffffffff92909216919091179055565b6000826118cd57506000610706565b828202828482816118da57fe5b0414611931576040517f08c379a000000000000000000000000000000000000000000000000000000000815260040180806020018281038252602181526020018061231c6021913960400191505060405180910390fd5b9392505050565b60008082116119a857604080517f08c379a000000000000000000000000000000000000000000000000000000000815260206004820152601a60248201527f536166654d6174683a206469766973696f6e206279207a65726f000000000000604482015290519081900360640190fd5b8183816119b157fe5b049392505050565b60008282018381101561193157604080517f08c379a000000000000000000000000000000000000000000000000000000000815260206004820152601b60248201527f536166654d6174683a206164646974696f6e206f766572666c6f770000000000604482015290519081900360640190fd5b600082821115611a9e57604080517f08c379a000000000000000000000000000000000000000000000000000000000815260206004820152601e60248201527f536166654d6174683a207375627472616374696f6e206f766572666c6f770000604482015290519081900360640190fd5b50900390565b3390565b600154604080517f70a08231000000000000000000000000000000000000000000000000000000008152306004820152905160009273ffffffffffffffffffffffffffffffffffffffff16916370a08231916024808301926020929190829003018186803b158015611b1957600080fd5b505afa158015611b2d573d6000803e3d6000fd5b505050506040513d6020811015611b4357600080fd5b5051905080821115611bfd57600154604080517fa9059cbb00000000000000000000000000000000000000000000000000000000815273ffffffffffffffffffffffffffffffffffffffff8681166004830152602482018590529151919092169163a9059cbb9160448083019260209291908290030181600087803b158015611bcb57600080fd5b505af1158015611bdf573d6000803e3d6000fd5b505050506040513d6020811015611bf557600080fd5b50611ca69050565b600154604080517fa9059cbb00000000000000000000000000000000000000000000000000000000815273ffffffffffffffffffffffffffffffffffffffff8681166004830152602482018690529151919092169163a9059cbb9160448083019260209291908290030181600087803b158015611c7957600080fd5b505af1158015611c8d573d6000803e3d6000fd5b505050506040513d6020811015611ca357600080fd5b50505b505050565b6040805173ffffffffffffffffffffffffffffffffffffffff8416602482015260448082018490528251808303909101815260649091019091526020810180517bffffffffffffffffffffffffffffffffffffffffffffffffffffffff167fa9059cbb00000000000000000000000000000000000000000000000000000000179052611ca6908490611f61565b801580611de45750604080517fdd62ed3e00000000000000000000000000000000000000000000000000000000815230600482015273ffffffffffffffffffffffffffffffffffffffff848116602483015291519185169163dd62ed3e91604480820192602092909190829003018186803b158015611db657600080fd5b505afa158015611dca573d6000803e3d6000fd5b505050506040513d6020811015611de057600080fd5b5051155b611e39576040517f08c379a00000000000000000000000000000000000000000000000000000000081526004018080602001828103825260368152602001806123676036913960400191505060405180910390fd5b6040805173ffffffffffffffffffffffffffffffffffffffff8416602482015260448082018490528251808303909101815260649091019091526020810180517bffffffffffffffffffffffffffffffffffffffffffffffffffffffff167f095ea7b300000000000000000000000000000000000000000000000000000000179052611ca6908490611f61565b6040805173ffffffffffffffffffffffffffffffffffffffff80861660248301528416604482015260648082018490528251808303909101815260849091019091526020810180517bffffffffffffffffffffffffffffffffffffffffffffffffffffffff167f23b872dd00000000000000000000000000000000000000000000000000000000179052611f5b908590611f61565b50505050565b6060611fc3826040518060400160405280602081526020017f5361666545524332303a206c6f772d6c6576656c2063616c6c206661696c65648152508573ffffffffffffffffffffffffffffffffffffffff166120399092919063ffffffff16565b805190915015611ca657808060200190516020811015611fe257600080fd5b5051611ca6576040517f08c379a000000000000000000000000000000000000000000000000000000000815260040180806020018281038252602a81526020018061233d602a913960400191505060405180910390fd5b60606120488484600085612050565b949350505050565b6060824710156120ab576040517f08c379a00000000000000000000000000000000000000000000000000000000081526004018080602001828103825260268152602001806122f66026913960400191505060405180910390fd5b6120b48561220b565b61211f57604080517f08c379a000000000000000000000000000000000000000000000000000000000815260206004820152601d60248201527f416464726573733a2063616c6c20746f206e6f6e2d636f6e7472616374000000604482015290519081900360640190fd5b600060608673ffffffffffffffffffffffffffffffffffffffff1685876040518082805190602001908083835b6020831061218957805182527fffffffffffffffffffffffffffffffffffffffffffffffffffffffffffffffe0909201916020918201910161214c565b6001836020036101000a03801982511681845116808217855250505050505090500191505060006040518083038185875af1925050503d80600081146121eb576040519150601f19603f3d011682016040523d82523d6000602084013e6121f0565b606091505b5091509150612200828286612211565b979650505050505050565b3b151590565b60608315612220575081611931565b8251156122305782518084602001fd5b816040517f08c379a00000000000000000000000000000000000000000000000000000000081526004018080602001828103825283818151815260200191508051906020019080838360005b8381101561229457818101518382015260200161227c565b50505050905090810190601f1680156122c15780820380516001836020036101000a031916815260200191505b509250505060405180910390fdfe4f776e61626c653a206e6577206f776e657220697320746865207a65726f2061646472657373416464726573733a20696e73756666696369656e742062616c616e636520666f722063616c6c536166654d6174683a206d756c7469706c69636174696f6e206f766572666c6f775361666545524332303a204552433230206f7065726174696f6e20646964206e6f7420737563636565645361666545524332303a20617070726f76652066726f6d206e6f6e2d7a65726f20746f206e6f6e2d7a65726f20616c6c6f77616e6365a164736f6c634300060c000a",
    "linkReferences": {}
  },
  "methodIdentifiers": {
    "BONUS_MULTIPLIER()": "8aa28550",
    "add(uint256,address,bool)": "1eaaa045",
    "bonusEndBlock()": "1aed6553",
    "deposit(uint256,uint256)": "e2bbb158",
    "dev(address)": "8d88a90e",
    "devaddr()": "d49e77cd",
    "emergencyWithdraw(uint256)": "5312ea8e",
    "getMultiplier(uint256,uint256)": "8dbb1e3a",
    "massUpdatePools()": "630b5ba1",
    "migrate(uint256)": "454b0608",
    "migrator()": "7cd07e47",
    "owner()": "8da5cb5b",
    "pendingSushi(uint256,address)": "195426ec",
    "poolInfo(uint256)": "1526fe27",
    "poolLength()": "081e3eda",
    "renounceOwnership()": "715018a6",
    "set(uint256,uint256,bool)": "64482f79",
    "setMigrator(address)": "23cf3118",
    "startBlock()": "48cd4cb1",
    "sushi()": "0a087903",
    "sushiPerBlock()": "b0bcf42a",
    "totalAllocPoint()": "17caf6f1",
    "transferOwnership(address)": "f2fde38b",
    "updatePool(uint256)": "51eb05a6",
    "userInfo(uint256,address)": "93f1a40b",
    "withdraw(uint256,uint256)": "441a3e70"
  },
  "id": 0
}